:020000040800F2
:10000000E81C0020F1140008410300084303000825
:10001000470300084B0300084F03000800000000DE
:100020000000000000000000000000005303000872
:10003000550300080000000057030008590300089A
:100040000B1500080B1500080B1500080B15000810
:100050000B1500080B1500080B1500080B15000800
:100060000B1500080B1500080B1500080B150008F0
:100070000B1500080B1500080B1500080B150008E0
:100080000B1500080B1500080B1500080B150008D0
:100090000B1500080B1500080B1500080B150008C0
:1000A0000B1500080B1500080B1500080B150008B0
:1000B0000B1500080B1500080B1500080B150008A0
:1000C0000B1500080B1500080B1500080B15000890
:1000D0000B1500080B1500080B1500080B15000880
:1000E0000B1500080B1500080B1500080B15000870
:1000F0000B1500080B1500080B1500080B15000860
:100100000B1500080B1500080B1500080B1500084F
:100110000B1500080B1500080B1500080B1500083F
:100120000B1500080B1500080B1500080B1500082F
:100130000B1500080B1500080B1500080B1500081F
:100140000B1500080B1500080B1500080B1500080F
:100150000B1500080B1500080B1500080B150008FF
:100160000B1500080B1500080B1500080B150008EF
:100170000B1500080B1500080B1500080B150008DF
:100180000B1500080B150008DFF80CD002F004FC7A
:1001900000480047B7020008E81C002010B50446DC
:1001A0002146604802F0F8F800BF40215D4802F0A7
:1001B000A3F90028F9D010BD10B500BF202159487F
:1001C00002F09AF90028F9D0564802F0E9F8C0B2D6
:1001D00010BD10B500F007FE10BD00B587B00121BD
:1001E000084601F06BFE0121102001F0C1FE07223C
:1001F00009214D4801F04FFC07220A214A4801F02D
:100200004AFC02208DF8040003208DF80500002030
:100210008DF8060001208DF8070040020090694625
:10022000414801F0ADFB4FF48060009069463E48C4
:1002300001F0A6FB0121102001F040FE4FF4005018
:10024000009001208DF8040003208DF805000120A6
:100250008DF806008DF807006946344801F090FBE0
:100260004FF4165003900020ADF81000ADF81200C6
:10027000ADF81400ADF818000C20ADF8160003A975
:10028000284801F0D6FF4FF4A06001F083FA252042
:100290008DF8080000208DF809008DF80A00012073
:1002A0008DF80B0002A801F07AFA01211D4802F036
:1002B00048F807B000BD4FF4A06001F06BFA02F0FF
:1002C0008CFA01F02FFAFFF788FF00F0BBF9FFF777
:1002D00080FF26E000201649086001201549C1F87A
:1002E0009002154908604FF4FA7002F0D3FA012029
:1002F0000F4908600020091D086001200F49C1F85E
:10030000A4024FF4FA7002F0C5FA0120084908600F
:10031000091D08600020084908604FF4FA7002F0D7
:10032000B9FAD7E700100140000002400010024077
:100330008C02424200004242A40243420000434277
:10034000704700BFFEE700BFFEE700BFFEE700BF4B
:10035000FEE7704770477047704700002DE9F04195
:100360000E4614461F46002500233FE03B2A04D1D9
:10037000022B02D0032B00D03BE0032B04D1DFF88B
:10038000D8C29CF800102EE0022B08D1222A04D1FA
:1003900000218C4680F800C025E0022123E0202ABD
:1003A00001D0092A05D14FF0000C80F800C00021CF
:1003B00019E0222A09D102214FF0000C00F801CBEC
:1003C000AC466D1C44F82C000DE05C2A05D1DFF82A
:1003D00088C28CF80030032105E01BB9AC466D1CC7
:1003E00044F82C0001210B46401C00BF0278002A73
:1003F000BCD100BF002144F8251006B1356001785A
:100400003B2902D1002100F8011B3860BDE8F081D2
:100410002DE9F04107460E46154600240CE055F83C
:10042000240040B18DA1384602F08AFA55F8241014
:10043000384602F085FA641CB442F0DBBDE8F08176
:100440008749096821B9874908608549086004E03F
:1004500084490968886083490860704770B505461B
:100460007F4804680CE0284602F076FA06463246D9
:100470002946206802F080FA08B9204670BDA468B9
:10048000002CF0D10020F9E770B506460C46206834
:10049000FFF7E4FF05463DB973A0216800F0F5FFC2
:1004A00079A000F0F2FF70BD214630466A6890479F
:1004B00000BFF8E710B5ADF5027D044612E04FF439
:1004C000007101A802F031FA6B4601AA81A9204609
:1004D000FFF744FF8198002803DD01A98198FFF709
:1004E000D3FF009C20780028E9D10DF5027D10BDD6
:1004F0002DE9F04104460E46154610E0286802F04A
:100500002BFA074621683A46286802F035FA28B9DE
:100510002946304662689047BDE8F0810C34206877
:100520000028EBD166A0296800F0AFFF00BFF3E719
:1005300070B505460C466BA000F0A7FF0CE01DB19E
:1005400029466AA000F0A1FFA068007818B168A051
:10055000A16800F09AFF0C3420680028EFD170BD2C
:1005600070B504460D46214662A000F08EFF294674
:100570006AA0FFF7DDFF70BD2DE9F04106460C468D
:10058000022E17D1606802F0E7F907463A4664A1E7
:10059000606802F0F1F920B963A000F076FFBDE8D1
:1005A000F081606820605EA0606021463046FFF701
:1005B0006BFFF4E74BA000F068FF2948056804E0F2
:1005C0005EA0E96800F061FFAD68002DF8D100BFC2
:1005D000E5E770B504460D46052C04D059495AA0EC
:1005E000FFF7BEFF70BD5BA000F04FFF00BFF9E753
:1005F00070B505460C46022D04D0524959A0FFF7AC
:10060000AFFF70BD606818B959A000F03EFFF8E771
:100610005EA0616800F039FF00BFF2E770B50446E4
:100620000D46012C07D15FA000F02FFF00210846E6
:10063000FFF7A2FF70BD611E2A1D4248FFF758FF59
:1006400000BFF7E700B56248FFF7FAFE6148FFF721
:10065000F7FE002000BD0000080000202000000080
:100660000C00002010000020436F756C64206E6F3A
:100670007420666F756E64202725732720636F6D65
:100680006D616E640A000000496620796F752077FD
:10069000616E7420746F206B6F6E77206176616974
:1006A0006C61626C6520636F6D6D616E64732C208C
:1006B00074797065202768656C70270A0000000057
:1006C000436F756C64206E6F7420666F756E642066
:1006D00027257327207375622D636F6D6D616E64BE
:1006E0000A00000055736167653A0A00257320000F
:1006F00025730A00696E76616C696420272573276B
:1007000020636F6D6D616E643A2077726F6E672043
:10071000617267756D6574730A0000002020000027
:1007200068656C700000000041726520796F75206B
:100730006B696464696E673F0A0000002020202511
:10074000730A0000240000207061727420616464E8
:1007500000000000616464207375636365737366F1
:10076000756C0A00706172742064656C0000000092
:1007700043616E27742070617273696E67206172C5
:1007800067756D656E74730A0000000064656C65C2
:1007900074656420272573272070617274697469F9
:1007A0006F6E0A00696E76616C69642027706172F1
:1007B000742720636F6D6D616E643A20746F6F20D3
:1007C00066657720617267756D656E74730A0000E7
:1007D0003C000020140000200021F64A1160F64A77
:1007E0001160491EF54A11600021F54A1160002090
:1007F0000AE0F44901EB0021F34A42F820100021FD
:1008000052F820201170401C1428F2DB704710B5FC
:100810000446ED49E84A126851F82200214602F0E8
:10082000A2F8E5480068401CE3490860142801DB91
:1008300000200860E0480068DE490968884203DD5E
:10084000DD480068DB490860DD480068401CDC4981
:10085000086010BDD9480068002801DA0020704700
:10086000D64802680068401ED44B1860002802DA9F
:10087000D04800681860D1480068CF4B1B68984288
:1008800003D1CE480260002104E0CF48CB4B1B6867
:1008900050F823100846E2E7C8480068002801DA4B
:1008A00000207047C5480068C34A1268904201D1D1
:1008B0000020F6E7C1480068401CC04A1060BD4AED
:1008C0001268904202DD0020BC4A1060BB480068FC
:1008D000B94A1268904201D1BCA104E0BA48B74AB3
:1008E000126850F822100846DBE770B5B44800687B
:1008F000B0490968451AB0480068441C11E0AD4889
:100900000068844200DD0024AB480068844200D1C6
:1009100008E0AD4850F82410ADA000F0B6FD6D1C05
:10092000641CECE700BF70BD2DE9F04780468946A6
:1009300014461D46DDE9086AB9F1000F03D12068AD
:10094000296888420CD1AAF101002968814204D9A2
:100950000720FFF723FCBDE8F0872868401C2860CB
:10096000B9F1000F1ED028682168471A012F06D957
:100970007A1E236899195B1C981901F0AFFF206853
:1009800006F8008021688819394600F0A1FD20682A
:10099000401C206002E00820FFF700FC781E071EC4
:1009A000F9D10BE00127206806F80080216888193A
:1009B000394600F08DFD2068401C206000BFCAE76A
:1009C0002DE9FC4704460D4616461F46DDE90B9A05
:1009D000DDF8288008E0CDE9009A207843463A46C1
:1009E0003146FFF7A1FF641C281EA5F10105F2D1D5
:1009F000BDE8FC872DE9F04F89B004460F46002082
:100A0000089007904FF0010A00260590C5E10120EB
:100A10000690FFF7D1FB05460A2D01D00D2D03D11D
:100A20006CA000F032FDB9E1002E3FD0012E12D1B2
:100A30005B2D03D103A8855502260BE007A9386872
:100A400008AB5246CDE900140290314603A8FFF7E7
:100A5000B7FF0026A1E1A5F14100082814D2DFE884
:100A600000F00D1007041313130A022500261CE0E2
:100A70000625002619E00125002616E0102500268F
:100A800013E00E25002610E03046761C03A90D5415
:100A900007A9386808AB5246CDE9001402903146E8
:100AA00003A8FFF78DFF002677E100BF0E2D73D05E
:100AB00009DC0C2D71D2DFE805F0701F36703FAAFB
:100AC0002A70EB7070681B2D0CD006DC0F2D6ED0D9
:100AD000102D6DD0182D60D1B1E07F2D69D0FF2D84
:100AE000F9D1D3E01EB903A88555012603E03AA049
:100AF00000F0CBFC00264EE105E00820FFF74EFB9E
:100B00000898401E089008980028F6D143E1DDE9D6
:100B10000710884206D20899605CFFF73FFB0898EF
:100B2000401C089037E1089828B10820FFF736FBF1
:100B30000898401E08902EE1DDE90710884223D274
:100B4000DDE90701401AA0F10108B8F1000F0CD04F
:100B5000089A521CA118089AA018424601F0BEFE3D
:100B600008996018414600F0B3FC2020FFF716FBFF
:100B700000BF0820FFF712FBB8F10000A8F1010840
:100B8000F7D10798401E079005E1DDE9071088427C
:100B90003CD2DDF8209006E0A4E0F2E02020FFF750
:100BA000FDFA09F1010907988145F7D325E03EE0F8
:100BB00097E06CE04C000020500000205400002022
:100BC00058000020E80000209800002000000000ED
:100BD00025730A000A000000696D706F7373696203
:100BE0006C6520636F6E646974696F6E202338379B
:100BF000360A00000820FFF7D1FA4846A9F101099A
:100C000008998842F6D80898079000BFC3E0DDE94C
:100C1000071088420AD2DDE90701A0EB0108089914
:100C20006018414600F054FC07980890B3E0BAF110
:100C3000000F01D1012000E000208246ABE005E07A
:100C40000820FFF7ABFA0898401E08900898002883
:100C5000F6D1DDE90710884217D2DDF8209004E0D4
:100C60002020FFF79BFA09F1010907988145F7D386
:100C700002E00820FFF792FA4846A9F10109089915
:100C80008842F6D80898079000BF84E000BF00BFF4
:100C9000089828B3DDE90701A0EB01080898401E79
:100CA0000890089A521CA118089AA018424601F010
:100CB00015FE0820FFF772FA08996018414600F007
:100CC00007FC2020FFF76AFA00BF0820FFF766FA4A
:100CD000B8F10000A8F10108F7D10798401E07906D
:100CE00059E000BF0026102D03D1FFF7B3FD814668
:100CF00002E0FFF7D1FD8146B9F1000F03D10720D3
:100D0000FFF74CFA49E005E00820FFF747FA08989A
:100D1000401E089008980028F6D1DDE907108842A7
:100D200017D2DDF820B004E02020FFF737FA0BF1EE
:100D3000010B07988345F7D302E00820FFF72EFA4E
:100D40005846ABF1010B08998842F6D808980790ED
:100D500000BF4946204601F006FE204601F0FCFD9A
:100D60000790DDE9071088420AD2DDE90701A0EB10
:100D7000010808996018414600F0AAFB07980890FE
:100D80000BE0386807AB08AA5146CDE90040284679
:100D9000FFF7CAFD00BF00BF00BF38E600BF0798DD
:100DA0003860002007996054207828B120782128E5
:100DB00002D02046FFF72BFD144800681449086054
:100DC000059809B0BDE8F08F13B5044611480068D6
:100DD00020B9FFF701FD01200E49086001A9204656
:100DE000FFF708FE1CBDC0B000BF0B490BA000F010
:100DF0004CFB4FF480716846FFF7E6FF9DF800005A
:100E00000028F2D06846FFF755FBEEE750000020BF
:100E1000540000206C0000205C00002025733E2060
:100E20000000000070B50446002509E02168481C58
:100E30002060087805EB850100EB4100A0F130054A
:100E400001F048FD006821680978405C2028EDD059
:100E5000284670BD10B502460B46114600E0491CFD
:100E6000181EA3F1010302D008780028F7D1881AD0
:100E700010BD2DE9F04FA9B004460E46174698461E
:100E8000DDE932B9359D2822F4A10BA801F026FD39
:100E90002822FCA101A801F021FD05F0400008B1C5
:100EA00001A800E00BA8159005F0100008B125F08E
:100EB0000105BBF1020F02DBBBF1240F03DD0020B3
:100EC00029B0BDE8F08F05F0010008B1302000E046
:100ED000202028900020279005F00200E8B1002192
:100EE0000846791A78EB000008DA2D2027900022B6
:100EF0007F4262EB0808A9F101090EE005F0040049
:100F000020B12B202790A9F1010906E005F0080087
:100F100018B120202790A9F1010905F0200050B157
:100F2000BBF1100F02D1A9F1020904E0BBF1080FD7
:100F300001D1A9F101094FF0000A002187EA01005F
:100F400088EA0101084306D1302250460AF1010A1D
:100F500016A90A540DE005E0012250460AF1010AE3
:100F600016A90A54002187EA010088EA0101084312
:100F7000F2D13498824501DDCDF8D0A03498A9EBA8
:100F8000000905F0110050B904E0B44201D8202056
:100F90002070641CB9F10000A9F10109F5DC279863
:100FA00020B1B44201D827982070641C05F02000BD
:100FB000B8B1BBF1080F05D1B44201D83020207080
:100FC000641C0EE0BBF1100F0BD1B44201D83020ED
:100FD0002070641CB44203D8159890F8210020704A
:100FE000641C05F0100050B904E0B44201D8289800
:100FF0002070641CB9F10000A9F10109F5DC04E0DE
:10100000B44201D830202070641C3498411E3491C1
:101010005045F5DC06E0B44203D816A810F80A00E3
:101020002070641CBAF10000AAF1010AF3DC04E0AC
:10103000B44201D820202070641CB9F10000A9F14D
:101040000109F5DC20463BE72DE9FF4F8BB08146D7
:101050004C460C984844A0F10108A9F10100404514
:1010600005D94FF0FF38A8EB0900401C0C90F9E1BE
:101070000D980078252806D0444502D80D980078B0
:101080002070641CEBE1002700BF0D98401C0D9000
:101090000D9800782B280DD004DC20280DD02328B3
:1010A00014D10DE02D2802D030280FD10BE047F0ED
:1010B0001007EAE747F00407E7E747F00807E4E727
:1010C00047F02007E1E747F00107DEE74FF0FF3A7E
:1010D00001F000FC00680D990978405C202804D1DB
:1010E0000DA8FFF79FFE824611E00D9800782A2890
:1010F0000DD10D98401C0D900E9850F804AB0E9039
:10110000BAF1000F03DACAF1000A47F010074FF0F6
:10111000FF3005900D9800782E2821D10D98401CA5
:101120000D9001F0D7FB00680D990978405C2028EC
:1011300004D10DA8FFF776FE05900CE00D9800781D
:101140002A2808D10D98401C0D900E980068059033
:101150000E98001D0E900598002801DA00200590D9
:101160004FF0FF3B0D98007868280BD00D98007861
:101170006C2807D00D9800784C2803D00D98007883
:101180005A2811D10D9890F800B00D98401C0D9080
:10119000BBF16C0F08D10D9800786C2804D14FF08A
:1011A0004C0B0D98401C0D900A2008900D9800786B
:1011B0006E2852D00CDC632817D004DC252879D0A7
:1011C000582878D1E5E0642876D06928F9D1E7E09D
:1011D00073282FD004DC6F2870D07028F1D19AE0EA
:1011E00075286CD07828ECD1D6E007F0100050B903
:1011F00004E0444501D820202070641CAAF10100BD
:10120000B0F1000AF5DC0E9810F8041B0E90C8B27D
:101210000790444501D807982070641C04E04445B9
:1012200001D820202070641CAAF10100B0F1000A4E
:10123000F5DC14E10E98006806900E98001D0E90E3
:10124000069808B919A00690DDE90510FFF702FE1F
:101250000A9007F0100080BB37E075E03031323380
:101260003435363738396162636465666768696A40
:101270006B6C6D6E6F707172737475767778797A46
:1012800000000000303132333435363738394142CE
:10129000434445464748494A4B4C4D4E4F505152A6
:1012A000535455565758595A000000003C4E554C5F
:1012B0004C3E000064E077E071E00CE066E072E034
:1012C000444501D820202070641C5046AAF1010A30
:1012D0000A998842F4DC002009900BE0444502D8CA
:1012E000069800782070641C0698401C06900998A7
:1012F000401C0990DDE909018842EFDB04E0444528
:1013000001D820202070641C5046AAF1010A0A99D5
:101310008842F4DCA3E00AF1010018B94FF0080A92
:1013200047F0010710210598CDE9001ACDE9020721
:101330000E9850F804CB6246002341460E9020469A
:10134000FFF797FD04468AE0BBF16C0F06D10E99BA
:1013500001C90E91A4EB0901016010E0BBF15A0F25
:1013600006D10E9901C90E91A4EB0901016006E0B6
:101370000E9901C90E91A4EB0901016000BF6EE056
:10138000444501D825202070641C68E0082008909E
:101390001DE047F0400700BF1020089017E000BF95
:1013A00047F0020700BF12E0444501D82520207015
:1013B000641C0D98007830B1444502D80D9800782F
:1013C0002070641C02E00D98401E0D9047E000BFA5
:1013D000BBF14C0F09D10E98C01D20F007000E90F4
:1013E000D0E9005608300E902BE0BBF16C0F08D10D
:1013F0000E9820C800260E9007F0020008B3EE17E2
:101400001FE0BBF15A0F04D10E9820C800260E90A1
:1014100017E0BBF1680F0CD10E9830F8041B8DB2A9
:1014200000260E9007F0020058B128B2C6170546F4
:1014300007E00E9820C800260E9007F0020000B1C9
:10144000EE17059908982A463346CDE901A103977E
:10145000009041462046FFF70CFD044600BF0D9862
:10146000401C0D900D98007800287FF401AE444593
:1014700001D8207004E00C9810B1002088F800001A
:10148000A4EB09000FB0BDE8F08F0FB438B505A884
:1014900000904FF480610D48009B049AFFF7D4FD43
:1014A000054600200090094C09E020780A2802D166
:1014B0000D20FEF773FE2078FEF770FE641C207886
:1014C0000028F2D1284638BC5DF814FBE81400204F
:1014D00000B9704700BFFCE770B50446204601F034
:1014E0003BFA054629462046FFF7F2FF70BD000093
:1014F0000648804706480047FEE7FEE7FEE7FEE7AE
:10150000FEE7FEE7FEE7FEE7FEE7FEE7F11500086F
:10151000890100080CB50020019000907648006811
:1015200040F480307449086000BF7348006800F4DC
:10153000003000900198401C0190009818B9019863
:10154000B0F5A04FF1D16C48006800F4003010B144
:101550000120009001E0002000900098012846D171
:1015600065484030006840F0805063494031086071
:101570006248006840F44040604908605E480830B6
:1015800000685D49083108600846006840F4004082
:1015900008600846006840F4A05008605848091FD9
:1015A0000860081F006840F08070091F086000BFD5
:1015B0005148006800F000700028F9D040F2057032
:1015C000504908604C480830006820F003004A4940
:1015D000083108600846006840F00200086000BF5B
:1015E00045480830006800F00C000828F8D10CBD10
:1015F00010B54548006840F47000434908603E4813
:10160000006840F001003C49086000203A49083178
:101610000860394800683D490840374908603C483F
:10162000091D0860081F006820F48020091F086059
:10163000002031490C310860FFF76CFF4FF000606B
:1016400031498039086010BD70B5002000220223A6
:1016500000240221284D08352D6805F00C0020B12A
:10166000042806D0082834D107E02A4D2A4E3560D8
:1016700033E02A4D284E35602FE01F4D2D1D2D687B
:10168000C5F380541C4D2D1D2D6805F03F0154B14C
:10169000224DB5FBF1F5184E361D3668C6F3881697
:1016A00005FB06F209E01B4DB5FBF1F5124E361DA8
:1016B0003668C6F3881605FB06F20F4D2D1D2D6802
:1016C000C5F301456D1C6B00B2FBF3F5124E35609E
:1016D00003E0104D104E356000BF00BF064D0835C9
:1016E0002D68C5F303150E4E705D0B4D2D68C5407A
:1016F000094E356070BD00000038024000700040A7
:1017000008544007003C024088ED00E0FFFFF6FE71
:10171000103000240024F4007000002000127A0031
:10172000740000201CB50121512000F0C7FB1820D7
:10173000009001208DF8040000208DF806000320A1
:101740008DF8050001208DF8070069460E4800F06D
:1017500017F918210C4800F08FF94FF40070009031
:1017600069460A4800F00CF94FF40071074800F090
:1017700083F9022000906946054800F001F9022132
:10178000034800F079F91CBD001002400018024027
:101790000000024032490143324A1160704770B57F
:1017A000002100230F22C4781CB32E4C246804F4BB
:1017B000E064C4F5E064C4F30721C1F10404E3B2BA
:1017C0000A4144789C40E1B28478144021430C07DC
:1017D000210E254C05786155047804F01F0501247D
:1017E000AC4005786D11AD0005F1E025C5F800416C
:1017F00009E0047804F01F050124AC401B4D067875
:10180000761145F8264070BD194A0A400243154B2F
:101810001B1F1A60704739B1124A121D1268024329
:10182000104B1B1D1A6006E00E4A121D12688243FF
:101830000C4B1B1D1A607047042808D14FF0E021A3
:10184000096941F004014FF0E022116107E04FF017
:10185000E021096921F004014FF0E0221161704795
:101860000000FA050CED00E000E400E080E100E09B
:1018700080FFFF1F10B504469848844208D101211B
:10188000084600F086FB0021012000F082FB76E094
:101890009348844208D10121022000F07AFB002104
:1018A000022000F076FB6AE08E48844208D10121D4
:1018B000042000F06EFB0021042000F06AFB5EE0D3
:1018C0008948844208D10121082000F062FB0021F0
:1018D000082000F05EFB52E08448844208D10121D8
:1018E000102000F056FB0021102000F052FB46E0D3
:1018F0007F48844208D10121202000F04AFB0021CA
:10190000202000F046FB3AE07A48844208D10121C9
:10191000402000F03EFB0021402000F03AFB2EE08A
:101920007548844208D10121802000F032FB00215B
:10193000802000F02EFB22E07048844208D1012173
:10194000801500F026FB0021A01500F022FB16E018
:101950006B48844208D10121401500F01AFB002198
:10196000601500F016FB0AE06648844207D10121A9
:10197000001500F00EFB0021201500F00AFB10BD41
:10198000F0B50A4600210023002400BF3DE00125F8
:1019900005FA01F3156805EA03049C4234D1056891
:1019A0004F000326BE40B543056015794E00B54093
:1019B0000668354305601579012D02D01579022D91
:1019C00016D185684F000326BE40B5438560557922
:1019D0004E00B540866835438560456801268E40D7
:1019E000B5434560456896798E40B6B2354345604B
:1019F000C5684F000326BE40B543C560D5794E008B
:101A0000B540C6683543C560491C1029BFD3F0BD39
:101A10004FF6FF7101600021017141718171C17147
:101A2000704708B54FF480320092009A0A43009242
:101A3000009AC261C161009AC261C2690092C26922
:101A4000009208BD0246002013690B400BB1012033
:101A500000E0002070470146086980B270470246E6
:101A6000002053690B400BB1012000E000207047BB
:101A70000146486980B270470183704741837047CF
:101A80000AB1018300E041837047416170474269B8
:101A90004A4042617047F0B5002300244D07ED0E27
:101AA00002FA05F3CE1000F1200555F826504E0736
:101AB000F70E0F26BE40B543CF1000F1200646F8C2
:101AC0002750CE1000F1200555F8265045EA0304B2
:101AD000CE1000F1200545F82640F0BD0000024080
:101AE0000004024000080240000C024000100240C6
:101AF0000014024000180240001C02400020024076
:101B00000024024000280240F948006840F001002B
:101B1000F74908600020F64908310860F448006879
:101B2000F4490840F2490860F348091D0860F34889
:101B3000EF4984310860F0481038091D0860EC480E
:101B4000006820F48020EA4908600020E8490C3150
:101B50000860E7498C31086070470021E44A921C14
:101B6000117011460870704710B50146002200231D
:101B700000204A11012A02D1DD4C236808E0022A24
:101B800003D1DB4C7034236802E0D94C74342368F1
:101B900001F01F02012494401C400CB1012000E020
:101BA000002010BD38B5002000900024002500BFA3
:101BB0003120FFF7D9FF05460098401C009000989F
:101BC000B0F5A04F01D0002DF2D03120FFF7CCFFAF
:101BD00008B1012400E00024204638BD0146002061
:101BE000C34A106820F0F80040EAC1001060704756
:101BF000C349086070470021BD4A703211701170EE
:101C0000012802D004280AD104E00121B84A703228
:101C1000117005E00521B64A7032117000E000BF76
:101C200000BF7047B7490860704770B5049C41EA2F
:101C300082150126C6EB530645EA0645054345EAEB
:101C40000465AB4E361D356070BDAD490866704702
:101C5000820142EA0172A64B84331A607047A84998
:101C60008866704710B5830143EA016343EA027353
:101C70009F4C8834236010BDA14908677047A04974
:101C8000C864704702460020994B0833186820F05A
:101C9000EC6042EA01031843954B08331860704723
:101CA00002460020924B0833186820F0784042EA40
:101CB000010318438E4B083318607047014600201B
:101CC0008B4A0832106820F0030008431060704708
:101CD00087480830006800F00C007047014600207B
:101CE000834A0832106820F0F00008431060704703
:101CF000014600207E4A0832106820F4E050084374
:101D00001060704701460020794A0832106820F4BC
:101D1000604040EAC10010607047F0B50021002229
:101D20000024022500260223714F08373F6807F080
:101D30000C0121B1042905D0082937D105E0724FE3
:101D4000076036E0714F076033E0694F3F1D3F6821
:101D5000C7F38056664F3F1D3F6807F03F036EB1E3
:101D60006A4FB7FBF3F7DFF888C10CF1040CDCF81D
:101D700000C0CCF3881C07FB0CF40CE0624FB7FBEF
:101D8000F3F7DFF86CC10CF1040CDCF800C0CCF305
:101D9000881C07FB0CF4564F3F1D3F68C7F30147F3
:101DA0007F1C7D00B4FBF5F7076002E0564F07602B
:101DB00000BF00BF4E4F08373F6807F0F001090928
:101DC000534F7A5C0768D7404760494F08373F68F0
:101DD00007F4E051890A4E4F7A5C4768D740876024
:101DE000434F08373F6807F46041490B484F7A5C1E
:101DF0004768D740C760F0BD002100F44072B2F5DB
:101E0000407F0AD13A4A0832116821F4F811414A58
:101E100002401143364A08321160354A7032126866
:101E2000C0F30B031A43324B70331A6070473549C5
:101E30004439086070473349403908607047364973
:101E40000860704701460020294A8C32106820F053
:101E50001F004A1E1043264A8C321060704701460C
:101E60000020234A8C32106820F4F8504A1E40EAC1
:101E700002201F4A8C3210607047014600201C4A25
:101E80008C32106820F440100843106070470146FF
:101E90000020174A8C32106820F44000084310607C
:101EA000704701460020124A8C32106820F44030FE
:101EB00008431060704719490860704739B10C4AEF
:101EC0003032126802430A4B30331A6006E0084A87
:101ED000303212688243064B30331A607047F9B1D2
:101EE000034A343212680243014B34331A601CE057
:101EF00000380240FFFFF6EA1030002400300020D6
:101F000000004742800E47420024F40000127A008D
:101F100084000020FFFCFF0F5C014742E0114742B4
:101F20008F4A126882438E4B1A60704739B18C4ACF
:101F3000121D126802438A4B1B1D1A6006E0884A74
:101F4000121D12688243864B1B1D1A60704739B1FF
:101F5000834A0C3212680243814B0C331A6006E04C
:101F60007F4A0C32126882437D4B0C331A607047F3
:101F700039B17B4A103212680243794B10331A6030
:101F800006E0774A103212688243754B10331A60AC
:101F9000704739B1724A243A12680243704B243BAD
:101FA0001A6006E06E4A243A126882436C4B243B66
:101FB0001A60704739B16A4A203A12680243684B86
:101FC000203B1A6006E0664A203A12688243644B5E
:101FD000203B1A60704739B1614A1C3A12680243CB
:101FE0005F4B1C3B1A6006E05D4A1C3A1268824354
:101FF0005B4B1C3B1A60704739B1594A143A12685E
:102000000243574B143B1A6006E0554A143A1268D3
:102010008243534B143B1A60704739B1504A103A0F
:10202000126802434E4B103B1A6006E04C4A103ACD
:10203000126882434A4B103B1A60704739B1484AD4
:102040001C3212680243464B1C331A6006E0444AB5
:102050001C3212688243424B1C331A60704739B1FC
:102060003F4A2032126802433D4B20331A6006E09B
:102070003B4A203212688243394B20331A60704742
:1020800039B1374A243212680243354B24331A607F
:1020900006E0334A243212688243314B24331A60FB
:1020A000704739B12E4A2C32126802432C4B2C3324
:1020B0001A6006E02A4A2C3212688243284B2C33DD
:1020C0001A60704739B1264A303212680243244BF5
:1020D00030331A6006E0224A303212688243204BC5
:1020E00030331A607047012808D11D493C31096816
:1020F00041F008011A4A3C32116007E018493C31AE
:10210000096821F00801164A3C321160704739B164
:10211000134A273A12780243114B273B1A7006E004
:102120000F4A273A127882430D4B273B1A707047AB
:102130000B484030006840F0807009494031086029
:10214000704701460020064A283A12680A400AB140
:10215000012000E0002070470149263908707047CF
:102160003438024010B50446FA48844208D10121AF
:102170001020FFF752FF00211020FFF74EFF57E01D
:10218000F548844209D101214804FFF735FF0021B9
:102190004FF40030FFF730FF4AE0F048844209D1A5
:1021A00001218804FFF728FF00214FF48020FFF76A
:1021B00023FF3DE0EA48844209D10121C804FFF72A
:1021C0001BFF00214FF40020FFF716FF30E0E54829
:1021D000844209D101210805FFF70EFF00214FF4C9
:1021E0008010FFF709FF23E0DF48844208D1012176
:1021F0002020FFF712FF00212020FFF70EFF17E03D
:10220000DA48844209D101218807FFF7F5FE002151
:102210004FF08040FFF7F0FE0AE0D548844207D136
:1022200001214005FFF7E8FE00216005FFF7E4FE0D
:1022300010BD2DE9FF4705460E460024A14600BF0C
:10224000A046B08900B100BF2C8A24F44054F08825
:1022500004432C82AC8941F20C608443B0883189FC
:102260000843718908430443AC81AC8A24F4407468
:10227000B0890443AC826846FFF74FFDB5488542FC
:1022800002D0B948854202D1DDF80C9001E0DDF8BA
:102290000890A88900F4004040B109EBC90000EBA8
:1022A000091031684900B0FBF1F707E009EBC900FC
:1022B00000EB091031688900B0FBF1F76420B7FB2F
:1022C000F0F004012009642101FB1078A88900F4D2
:1022D000004040B1322000EBC800B0FBF1F000F04C
:1022E0000700044308E0322000EB08106421B0FB33
:1022F000F1F000F00F0004432C81BDE8FF874FF49C
:102300001651016000218180C18001810C21418131
:1023100000218181704710B502460020108A20F408
:1023200070600B884C8823438C882343CC882343DC
:102330001843108210BD0021018041808180C1803E
:10234000704721B1828942F40052828104E082897F
:102350004DF6FF731A4082817047028B02F47F4270
:102360000283028B0A430283704721B1828942F4BF
:102370000042828103E08289C2F30E0282817047AB
:1023800021B1828A42F40062828204E0828A4FF2A2
:10239000FF731A4082827047C1F30802828070473F
:1023A00001468888C0F308007047028A4FF6F07330
:1023B0001A400282028A0A430282704721B182894E
:1023C00042F00202828104E082894FF6FD731A40D6
:1023D0008281704782894FF2FF731A40828182891D
:1023E0000A4382817047028A4FF6DF731A400282E5
:1023F000028A0A430282704721B1028A42F4804273
:10240000028204E0028A4BF6FF731A400282704790
:10241000818941F001018181704721B1828A42F0B6
:102420000802828204E0828A4FF6F7731A408282A1
:102430007047028BD2B20283028B42EA01220283EE
:10244000704721B1828A42F02002828204E0828AAF
:102450004FF6DF731A408282704721B1828A42F0C0
:102460001002828204E0828A4FF6EF731A40828261
:102470007047828A4FF6FB731A408282828A0A432F
:102480008282704721B1828A42F00202828204E095
:10249000828A4FF6FD731A40828270471AB1838A8E
:1024A0000B43838202E0838A8B4383827047F0B5BB
:1024B0000346002400260025002040F66A17B94292
:1024C00000D100BF1846C1F3421401F01F060127D6
:1024D00007FA06F5012C01D10C3004E0022C01D1E1
:1024E000103000E014301AB107682F43076002E093
:1024F0000768AF430760F0BD02460020B1F5007FDA
:1025000000D100BF13880B400BB1012000E0002078
:10251000704701F40072B2F5007F00D100BFCA43DA
:102520000280704770B50246002400230025002079
:1025300040F66A16B14200D100BFC1F3421501F066
:102540001F03012606FA03F3012D13D196893340A8
:1025500017E0000000100140004400400048004027
:10256000004C004000500040001401400078004042
:10257000007C0040022D02D1168A334001E0968A89
:1025800033400C12012606FA04F41688344013B1C5
:102590000CB1012000E0002070BD10B50022002326
:1025A00040F66A14A14200D100BF0A1201249440EF
:1025B000A3B2DC43048010BD0A460021DBE0D30B4C
:1025C000002B75D0102971D2DFE801F0080F161D1D
:1025D000242B323940464C52585E646A038823F4F7
:1025E000004303F50043038060E0038823F4804345
:1025F00003F58043038059E0038823F4005303F577
:102600000053038052E0038823F4805303F5805382
:1026100003804BE0038823F4006303F50063038029
:1026200044E0038823F4806303F5806303803DE086
:10263000038823F4007303F50073038036E00388F6
:1026400023F4807303F5807303802FE0038823F065
:1026500080038033038029E0038823F04003403364
:10266000038023E0038823F02003203303801DE050
:10267000038823F010031033038017E0038823F04E
:1026800008030833038011E0038823F004031B1DB3
:1026900003800BE0038823F002039B1C038005E00A
:1026A000038823F001035B1C038000BF5DE0FFE7AC
:1026B000102959D2DFE801F0080D12171C21262B32
:1026C00030353A3F44494E53038823F40043038096
:1026D0004AE0038823F48043038045E0038823F421
:1026E0000053038040E0038823F4805303803BE0E1
:1026F000038823F40063038036E0038823F48063B7
:10270000038031E0038823F4007303802CE0038806
:1027100023F48073038027E0038823F08003038081
:1027200022E0038823F0400303801DE0038823F0A8
:102730002003038018E0038823F01003038013E0D4
:10274000038823F0080303800EE0038823F00403CA
:10275000038009E0038823F00203038004E0038878
:1027600023F00103038000BF00BF4FF6FF7303EAAD
:1027700042024B1CD9B21029FFF621AF7047F0B5C9
:102780001C46002600250123C1F11007974202DAFA
:10279000C1F11007FAB20E46002E0CDD05E0EF186D
:1027A000BDB24FF6FF7707EA4303371EA6F1010CCF
:1027B0000CF0FF06F3D1D0F814C04FF6FF77974026
:1027C0008F402F430CEA070CC0F814C0476904FA85
:1027D00001FC47EA0C074761F0BD10B56FF004003B
:1027E000FFF72AF81520394908700846007800EBF1
:1027F0004001C1EBC0104FF6FF7101EAC00034493F
:10280000088010BD0146314A12784A434FF0E02358
:102810005A6100229A611A46126942F001021A6155
:1028200000BF4FF0E022106900F001021AB100F47D
:102830008032002AF5D04FF0E022126922F0010226
:102840004FF0E0231A6100229A6170470146204A46
:1028500012884A434FF0E0235A6100229A611A46D7
:10286000126942F001021A6100BF4FF0E0221069C4
:1028700000F001021AB100F48032002AF5D04FF0C6
:10288000E022126922F001024FF0E0231A610022D7
:102890009A61704770B504464FF4077094FBF0F0EE
:1028A000C6B24FF4077094FBF0F100FB114085B203
:1028B00005E04FF40770FFF7C9FF701EC6B2002E87
:1028C000F7D115B12846FFF7C1FF70BD9400002075
:1028D00096000020004870475C2A000810B5431A93
:1028E000934209D28318881803E010F8011D03F8F9
:1028F000011D521EF9D210BD40EA01039B0703D00F
:1029000009E008C9121F08C0042AFAD203E011F82E
:10291000013B00F8013B521EF9D210BDD2B201E0DA
:1029200000F8012B491EFBD270470022F6E710B5D4
:1029300013460A4604461946FFF7F0FF204610BD2D
:10294000421E12F8013F002BFBD111F8013B02F8A7
:10295000013B002BF9D17047421C10F8011B0029E4
:10296000FBD1801A7047034611F8012B00F8012BA8
:10297000002AF9D11846704730B5054600200346B5
:1029800000E05B1C934205D2EC5CC85C201A01D1CC
:10299000002CF6D130BD0000064C074D06E0E06883
:1029A00040F0010394E8070098471034AC42F6D396
:1029B000FDF7EEFB482B0008682B000802E008C872
:1029C000121F08C1002AFAD170477047002001E0A9
:1029D00001C1121F002AFBD1704700404040404017
:1029E00040404040414141414140404040404040E2
:1029F000404040404040404040404005020202020A
:102A00000202020202020202020202202020202010
:102A100020202020200202020202020290909090C8
:102A200090901010101010101010101010101010A6
:102A3000101010101010020202020202888888880A
:102A40008888080808080808080808080808080806
:102A5000080808080808020202024000DB290008F2
:102A600068656C70205B7B636D64737D5D20090914
:102A7000092D2D2048656C702061626F7574206887
:102A8000656C703F000000006164640064656C0068
:102A900068656C700000000070617274205B616496
:102AA000647C64656C7C73686F777C726573657435
:102AB0005D2009092D2D204D616E616765204D5403
:102AC0004420706172746974696F6E730000000055
:102AD0007061727400000000616464203C6E616D7E
:102AE000653E203C6F66667365743E203C73697A70
:102AF000653E203C666C61673E20092D2D204164B7
:102B0000642061206D746420706172746974696FEF
:102B10006E20656E7472790064656C203C6E616D28
:102B2000653E200909092D2D2044656C65746520DA
:102B300061206D746420706172746974696F6E20B5
:102B4000656E747279000000682B00080000002098
:102B500098000000BC290008002C00089800002004
:102B6000501C0000CC2900080000000000000000FC
:102B7000000000000000000000000000902A000893
:102B80007905000800000000602A0008882A000873
:102B9000D3050008D82A00088C2A0008F10500088F
:102BA000182B0008D02A00081D06000800000000AD
:102BB000982A00080000000000000000FFFFFFFF4F
:102BC0000000000076697669000000000000000047
:102BD0000000000000000000007A030A000000006E
:102BE00000000000010203040607080900000000BD
:102BF00001020304010203040607080900000000A3
:040000050800018965
:00000001FF
